{
  "address": "0x10427841eC3fFB8F3C3045E90DC55D2E028DA676",
  "abi": [
    {
      "inputs": [
        {
          "internalType": "string",
          "name": "name_",
          "type": "string"
        },
        {
          "internalType": "string",
          "name": "symbol_",
          "type": "string"
        },
        {
          "internalType": "contract IERC721Metadata",
          "name": "complianceNFT_",
          "type": "address"
        },
        {
          "internalType": "address",
          "name": "tokenIssuer_",
          "type": "address"
        }
      ],
      "stateMutability": "nonpayable",
      "type": "constructor"
    },
    {
      "anonymous": false,
      "inputs": [
        {
          "indexed": true,
          "internalType": "address",
          "name": "owner",
          "type": "address"
        },
        {
          "indexed": true,
          "internalType": "address",
          "name": "spender",
          "type": "address"
        },
        {
          "indexed": false,
          "internalType": "uint256",
          "name": "value",
          "type": "uint256"
        }
      ],
      "name": "Approval",
      "type": "event"
    },
    {
      "anonymous": false,
      "inputs": [
        {
          "indexed": false,
          "internalType": "uint256",
          "name": "oldComplianceId",
          "type": "uint256"
        },
        {
          "indexed": false,
          "internalType": "uint256",
          "name": "newComplianceId",
          "type": "uint256"
        }
      ],
      "name": "ComplianceUpdated",
      "type": "event"
    },
    {
      "anonymous": false,
      "inputs": [
        {
          "indexed": false,
          "internalType": "address",
          "name": "tokenIssuer",
          "type": "address"
        },
        {
          "indexed": false,
          "internalType": "uint256",
          "name": "complianceId",
          "type": "uint256"
        }
      ],
      "name": "NewComplianceIssued",
      "type": "event"
    },
    {
      "anonymous": false,
      "inputs": [
        {
          "indexed": false,
          "internalType": "address",
          "name": "tokenHolder",
          "type": "address"
        },
        {
          "indexed": false,
          "internalType": "uint256",
          "name": "complianceId",
          "type": "uint256"
        },
        {
          "indexed": false,
          "internalType": "bool",
          "name": "accepted",
          "type": "bool"
        }
      ],
      "name": "NewComplianceSignedOff",
      "type": "event"
    },
    {
      "anonymous": false,
      "inputs": [
        {
          "indexed": true,
          "internalType": "address",
          "name": "from",
          "type": "address"
        },
        {
          "indexed": true,
          "internalType": "address",
          "name": "to",
          "type": "address"
        },
        {
          "indexed": false,
          "internalType": "uint256",
          "name": "value",
          "type": "uint256"
        }
      ],
      "name": "Transfer",
      "type": "event"
    },
    {
      "inputs": [],
      "name": "acceptComplianceUpdate",
      "outputs": [],
      "stateMutability": "nonpayable",
      "type": "function"
    },
    {
      "inputs": [
        {
          "internalType": "address",
          "name": "owner",
          "type": "address"
        },
        {
          "internalType": "address",
          "name": "spender",
          "type": "address"
        }
      ],
      "name": "allowance",
      "outputs": [
        {
          "internalType": "uint256",
          "name": "",
          "type": "uint256"
        }
      ],
      "stateMutability": "view",
      "type": "function"
    },
    {
      "inputs": [
        {
          "internalType": "address",
          "name": "spender",
          "type": "address"
        },
        {
          "internalType": "uint256",
          "name": "amount",
          "type": "uint256"
        }
      ],
      "name": "approve",
      "outputs": [
        {
          "internalType": "bool",
          "name": "",
          "type": "bool"
        }
      ],
      "stateMutability": "nonpayable",
      "type": "function"
    },
    {
      "inputs": [
        {
          "internalType": "address",
          "name": "account",
          "type": "address"
        }
      ],
      "name": "balanceOf",
      "outputs": [
        {
          "internalType": "uint256",
          "name": "",
          "type": "uint256"
        }
      ],
      "stateMutability": "view",
      "type": "function"
    },
    {
      "inputs": [],
      "name": "complianceNFT",
      "outputs": [
        {
          "internalType": "contract IERC721Metadata",
          "name": "",
          "type": "address"
        }
      ],
      "stateMutability": "view",
      "type": "function"
    },
    {
      "inputs": [],
      "name": "complianceURI",
      "outputs": [
        {
          "internalType": "string",
          "name": "currentComplianceURI",
          "type": "string"
        },
        {
          "internalType": "string",
          "name": "pendingComplianceURI",
          "type": "string"
        }
      ],
      "stateMutability": "view",
      "type": "function"
    },
    {
      "inputs": [],
      "name": "currentComplianceId",
      "outputs": [
        {
          "internalType": "uint256",
          "name": "",
          "type": "uint256"
        }
      ],
      "stateMutability": "view",
      "type": "function"
    },
    {
      "inputs": [],
      "name": "decimals",
      "outputs": [
        {
          "internalType": "uint8",
          "name": "",
          "type": "uint8"
        }
      ],
      "stateMutability": "view",
      "type": "function"
    },
    {
      "inputs": [],
      "name": "declineComplianceUpdate",
      "outputs": [],
      "stateMutability": "nonpayable",
      "type": "function"
    },
    {
      "inputs": [
        {
          "internalType": "address",
          "name": "spender",
          "type": "address"
        },
        {
          "internalType": "uint256",
          "name": "subtractedValue",
          "type": "uint256"
        }
      ],
      "name": "decreaseAllowance",
      "outputs": [
        {
          "internalType": "bool",
          "name": "",
          "type": "bool"
        }
      ],
      "stateMutability": "nonpayable",
      "type": "function"
    },
    {
      "inputs": [
        {
          "internalType": "address",
          "name": "spender",
          "type": "address"
        },
        {
          "internalType": "uint256",
          "name": "addedValue",
          "type": "uint256"
        }
      ],
      "name": "increaseAllowance",
      "outputs": [
        {
          "internalType": "bool",
          "name": "",
          "type": "bool"
        }
      ],
      "stateMutability": "nonpayable",
      "type": "function"
    },
    {
      "inputs": [
        {
          "internalType": "address",
          "name": "to",
          "type": "address"
        },
        {
          "internalType": "uint256",
          "name": "amount",
          "type": "uint256"
        }
      ],
      "name": "issueTokens",
      "outputs": [],
      "stateMutability": "nonpayable",
      "type": "function"
    },
    {
      "inputs": [],
      "name": "name",
      "outputs": [
        {
          "internalType": "string",
          "name": "",
          "type": "string"
        }
      ],
      "stateMutability": "view",
      "type": "function"
    },
    {
      "inputs": [],
      "name": "pendingComplianceId",
      "outputs": [
        {
          "internalType": "uint256",
          "name": "",
          "type": "uint256"
        }
      ],
      "stateMutability": "view",
      "type": "function"
    },
    {
      "inputs": [],
      "name": "pendingComplianceSignOffCount",
      "outputs": [
        {
          "internalType": "uint256",
          "name": "",
          "type": "uint256"
        }
      ],
      "stateMutability": "view",
      "type": "function"
    },
    {
      "inputs": [],
      "name": "symbol",
      "outputs": [
        {
          "internalType": "string",
          "name": "",
          "type": "string"
        }
      ],
      "stateMutability": "view",
      "type": "function"
    },
    {
      "inputs": [
        {
          "internalType": "address",
          "name": "",
          "type": "address"
        }
      ],
      "name": "tokenHolderCompliance",
      "outputs": [
        {
          "internalType": "uint256",
          "name": "",
          "type": "uint256"
        }
      ],
      "stateMutability": "view",
      "type": "function"
    },
    {
      "inputs": [],
      "name": "tokenHoldersCount",
      "outputs": [
        {
          "internalType": "uint256",
          "name": "",
          "type": "uint256"
        }
      ],
      "stateMutability": "view",
      "type": "function"
    },
    {
      "inputs": [],
      "name": "tokenIssuer",
      "outputs": [
        {
          "internalType": "address",
          "name": "",
          "type": "address"
        }
      ],
      "stateMutability": "view",
      "type": "function"
    },
    {
      "inputs": [],
      "name": "totalSupply",
      "outputs": [
        {
          "internalType": "uint256",
          "name": "",
          "type": "uint256"
        }
      ],
      "stateMutability": "view",
      "type": "function"
    },
    {
      "inputs": [
        {
          "internalType": "address",
          "name": "to",
          "type": "address"
        },
        {
          "internalType": "uint256",
          "name": "amount",
          "type": "uint256"
        }
      ],
      "name": "transfer",
      "outputs": [
        {
          "internalType": "bool",
          "name": "",
          "type": "bool"
        }
      ],
      "stateMutability": "nonpayable",
      "type": "function"
    },
    {
      "inputs": [
        {
          "internalType": "address",
          "name": "from",
          "type": "address"
        },
        {
          "internalType": "address",
          "name": "to",
          "type": "address"
        },
        {
          "internalType": "uint256",
          "name": "amount",
          "type": "uint256"
        }
      ],
      "name": "transferFrom",
      "outputs": [
        {
          "internalType": "bool",
          "name": "",
          "type": "bool"
        }
      ],
      "stateMutability": "nonpayable",
      "type": "function"
    },
    {
      "inputs": [
        {
          "internalType": "uint256",
          "name": "newComplianceId",
          "type": "uint256"
        }
      ],
      "name": "updateCompliance",
      "outputs": [],
      "stateMutability": "nonpayable",
      "type": "function"
    }
  ],
  "transactionHash": "0xce7d593780787e204a26662dc57024d9af15c060e5dde288e5111df9928f02c1",
  "args": [
    "Compliant Token",
    "CTT",
    "0x2f156a641fb4cdbdc30232e6af96658301dbd203",
    "0x2280C50eF73550b7Ac71AaCd1d6485B3120c2c46"
  ],
  "numDeployments": 2,
  "solcInputHash": "c980e6c8e8c0781f088c58baf10e3f5c",
  "bytecode": "0x60806040523480156200001157600080fd5b506040516200183c3803806200183c83398101604081905262000034916200016d565b8383600362000044838262000290565b50600462000053828262000290565b5050600580546001600160a01b039485166001600160a01b0319918216179091556006805493909416921691909117909155506200035c915050565b634e487b7160e01b600052604160045260246000fd5b600082601f830112620000b757600080fd5b81516001600160401b0380821115620000d457620000d46200008f565b604051601f8301601f19908116603f01168101908282118183101715620000ff57620000ff6200008f565b816040528381526020925086838588010111156200011c57600080fd5b600091505b8382101562000140578582018301518183018401529082019062000121565b600093810190920192909252949350505050565b6001600160a01b03811681146200016a57600080fd5b50565b600080600080608085870312156200018457600080fd5b84516001600160401b03808211156200019c57600080fd5b620001aa88838901620000a5565b95506020870151915080821115620001c157600080fd5b50620001d087828801620000a5565b9350506040850151620001e38162000154565b6060860151909250620001f68162000154565b939692955090935050565b600181811c908216806200021657607f821691505b6020821081036200023757634e487b7160e01b600052602260045260246000fd5b50919050565b601f8211156200028b57600081815260208120601f850160051c81016020861015620002665750805b601f850160051c820191505b81811015620002875782815560010162000272565b5050505b505050565b81516001600160401b03811115620002ac57620002ac6200008f565b620002c481620002bd845462000201565b846200023d565b602080601f831160018114620002fc5760008415620002e35750858301515b600019600386901b1c1916600185901b17855562000287565b600085815260208120601f198616915b828110156200032d578886015182559484019460019091019084016200030c565b50858210156200034c5787850151600019600388901b60f8161c191681555b5050505050600190811b01905550565b6114d0806200036c6000396000f3fe608060405234801561001057600080fd5b506004361061014d5760003560e01c806370a08231116100c3578063dd62ed3e1161007c578063dd62ed3e1461029d578063e4f3fe04146102b0578063e8b45671146102d0578063f243c2a7146102e3578063f3953d1d146102f6578063f49801901461030c57600080fd5b806370a082311461023557806395d89b411461025e578063a457c2d714610266578063a9059cbb14610279578063b6ece93d1461028c578063c364e70b1461029557600080fd5b8063313ce56711610115578063313ce567146101e357806339509351146101f25780634265868614610205578063475a9fa91461020e5780634787513a1461022357806350c06c7a1461022c57600080fd5b806306fdde0314610152578063095ea7b31461017057806318160ddd1461019357806323b872dd146101a55780632e32ae34146101b8575b600080fd5b61015a610314565b604051610167919061120b565b60405180910390f35b61018361017e36600461123a565b6103a6565b6040519015158152602001610167565b6002545b604051908152602001610167565b6101836101b3366004611266565b6103c0565b6005546101cb906001600160a01b031681565b6040516001600160a01b039091168152602001610167565b60405160128152602001610167565b61018361020036600461123a565b6103e4565b610197600a5481565b61022161021c36600461123a565b610406565b005b61019760095481565b61019760075481565b6101976102433660046112a7565b6001600160a01b031660009081526020819052604090205490565b61015a610509565b61018361027436600461123a565b610518565b61018361028736600461123a565b610593565b61019760085481565b6102216105a1565b6101976102ab3660046112c4565b610604565b6101976102be3660046112a7565b600b6020526000908152604090205481565b6102216102de3660046112fd565b61062f565b6006546101cb906001600160a01b031681565b6102fe61081c565b604051610167929190611316565b61022161093a565b60606003805461032390611344565b80601f016020809104026020016040519081016040528092919081815260200182805461034f90611344565b801561039c5780601f106103715761010080835404028352916020019161039c565b820191906000526020600020905b81548152906001019060200180831161037f57829003601f168201915b5050505050905090565b6000336103b4818585610984565b60019150505b92915050565b6000336103ce858285610aa8565b6103d9858585610b22565b506001949350505050565b6000336103b48185856103f78383610604565b6104019190611394565b610984565b6006546001600160a01b031633146104585760405162461bcd60e51b815260206004820152601060248201526f2737ba103a37b5b2b71034b9b9bab2b960811b60448201526064015b60405180910390fd5b6007546000036104b45760405162461bcd60e51b815260206004820152602160248201527f436f6d706c69616e63652073686f756c642062652073657420617420666972736044820152601d60fa1b606482015260840161044f565b600081116104fb5760405162461bcd60e51b8152602060048201526014602482015273125b9d985b1a59081a5cdcdd5948185b5bdd5b9d60621b604482015260640161044f565b6105058282610cd7565b5050565b60606004805461032390611344565b600033816105268286610604565b9050838110156105865760405162461bcd60e51b815260206004820152602560248201527f45524332303a2064656372656173656420616c6c6f77616e63652062656c6f77604482015264207a65726f60d81b606482015260840161044f565b6103d98286868403610984565b6000336103b4818585610b22565b600854336000908152600b60205260409020556105bc610daa565b6008546040805133815260208101929092526001908201527f9068aa7c30fb8d6b3f3d214eea3163da47bbdb60a1210da9f0ec5e8ff2adebbf906060015b60405180910390a1565b6001600160a01b03918216600090815260016020908152604080832093909416825291909152205490565b6006546001600160a01b0316331461067c5760405162461bcd60e51b815260206004820152601060248201526f2737ba103a37b5b2b71034b9b9bab2b960811b604482015260640161044f565b600081116106cc5760405162461bcd60e51b815260206004820152601c60248201527f436f6d706c69616e63652069642063616e6e6f74206265207a65726f00000000604482015260640161044f565b6006546005546040516331a9108f60e11b8152600481018490526001600160a01b039283169290911690636352211e90602401602060405180830381865afa15801561071c573d6000803e3d6000fd5b505050506040513d601f19601f8201168201806040525081019061074091906113a7565b6001600160a01b0316146107965760405162461bcd60e51b815260206004820181905260248201527f53686f756c642062652069737375656420627920746f6b656e20697373756572604482015260640161044f565b6007546000036107a557600755565b60088190556006546001600160a01b0316600090815260208190526040902054156107d2576107d26105a1565b600654604080516001600160a01b039092168252602082018390527f0f9601a75279425b447aacfbaed79267555d94a3b06d22eb5bbf71b0b5f02caa910160405180910390a15b50565b60055460075460405163c87b56dd60e01b815260609283926001600160a01b039091169163c87b56dd916108569160040190815260200190565b600060405180830381865afa158015610873573d6000803e3d6000fd5b505050506040513d6000823e601f3d908101601f1916820160405261089b91908101906113da565b91506040518060200160405280600081525090506008546000146109365760055460085460405163c87b56dd60e01b81526001600160a01b039092169163c87b56dd916108ee9160040190815260200190565b600060405180830381865afa15801561090b573d6000803e3d6000fd5b505050506040513d6000823e601f3d908101601f1916820160405261093391908101906113da565b90505b9091565b610942610daa565b6008546040805133815260208101929092526000908201527f9068aa7c30fb8d6b3f3d214eea3163da47bbdb60a1210da9f0ec5e8ff2adebbf906060016105fa565b6001600160a01b0383166109e65760405162461bcd60e51b8152602060048201526024808201527f45524332303a20617070726f76652066726f6d20746865207a65726f206164646044820152637265737360e01b606482015260840161044f565b6001600160a01b038216610a475760405162461bcd60e51b815260206004820152602260248201527f45524332303a20617070726f766520746f20746865207a65726f206164647265604482015261737360f01b606482015260840161044f565b6001600160a01b0383811660008181526001602090815260408083209487168084529482529182902085905590518481527f8c5be1e5ebec7d5bd14f71427d1e84f3dd0314c0f7b2291e5b200ac8c7c3b925910160405180910390a3505050565b6000610ab48484610604565b90506000198114610b1c5781811015610b0f5760405162461bcd60e51b815260206004820152601d60248201527f45524332303a20696e73756666696369656e7420616c6c6f77616e6365000000604482015260640161044f565b610b1c8484848403610984565b50505050565b6001600160a01b038316610b865760405162461bcd60e51b815260206004820152602560248201527f45524332303a207472616e736665722066726f6d20746865207a65726f206164604482015264647265737360d81b606482015260840161044f565b6001600160a01b038216610be85760405162461bcd60e51b815260206004820152602360248201527f45524332303a207472616e7366657220746f20746865207a65726f206164647260448201526265737360e81b606482015260840161044f565b610bf3838383610efb565b6001600160a01b03831660009081526020819052604090205481811015610c6b5760405162461bcd60e51b815260206004820152602660248201527f45524332303a207472616e7366657220616d6f756e7420657863656564732062604482015265616c616e636560d01b606482015260840161044f565b6001600160a01b03848116600081815260208181526040808320878703905593871680835291849020805487019055925185815290927fddf252ad1be2c89b69c2b068fc378daa952ba7f163c4a11628f55a4df523b3ef910160405180910390a3610b1c84848461115a565b6001600160a01b038216610d2d5760405162461bcd60e51b815260206004820152601f60248201527f45524332303a206d696e7420746f20746865207a65726f206164647265737300604482015260640161044f565b610d3960008383610efb565b8060026000828254610d4b9190611394565b90915550506001600160a01b038216600081815260208181526040808320805486019055518481527fddf252ad1be2c89b69c2b068fc378daa952ba7f163c4a11628f55a4df523b3ef910160405180910390a36105056000838361115a565b600854600003610e065760405162461bcd60e51b815260206004820152602160248201527f4e6f742070656e64696e6720636f6d706c69616e636520746f207369676e6f666044820152603360f91b606482015260840161044f565b336000908152602081905260408120541180610e2c57506006546001600160a01b031633145b610e865760405162461bcd60e51b815260206004820152602560248201527f4f6e6c792076616c696420746f6b656e20686f6c6465727320636f756c64206160448201526418d8d95c1d60da1b606482015260840161044f565b600a54610e94906001611394565b600a8190556009549003610ef9577fad030208e1f808a587c5efc67874932285f017f368afc5e1e6d08222be611324600754600854604051610ee0929190918252602082015260400190565b60405180910390a160088054600755600090819055600a555b565b60085415610f675760405162461bcd60e51b815260206004820152603360248201527f5472616e73666572206e6f7420616c6c6f776564207768656e2070656e64696e6044820152726720636f6d706c69616e63652065786973747360681b606482015260840161044f565b6007546001600160a01b0384166000908152600b602052604090205414801590610f9957506001600160a01b03831615155b15611055576006546001600160a01b038381169116146110555760405162461bcd60e51b815260206004820152606560248201527f546f6b656e20686f6c6465722077686f206465636c696e65732074686520636860448201527f616e676520696e207465726d7320616e6420636f6e646974696f6e73206f6e6c60648201527f792063616e207472616e7366657220746f6b656e7320746f20746f6b656e206960848201526439b9bab2b960d91b60a482015260c40161044f565b6001600160a01b0382166000908152600b602052604090205415801561107b5750600081115b156110b2576007546001600160a01b0383166000908152600b60205260409020556009546110aa906001611394565b600955505050565b6007546001600160a01b0383166000908152600b6020526040902054146111555760405162461bcd60e51b815260206004820152604b60248201527f546f6b656e732063616e206f6e6c79206265207472616e73666572656420746f60448201527f20746f6b656e20686f6c646572732061636365707420746865206c617465737460648201526a20636f6d706c69616e636560a81b608482015260a40161044f565b505050565b6001600160a01b03831660009081526020819052604090205415801561118857506001600160a01b03831615155b1561115557600160095461119c9190611487565b60095550506001600160a01b03166000908152600b6020526040812055565b60005b838110156111d65781810151838201526020016111be565b50506000910152565b600081518084526111f78160208601602086016111bb565b601f01601f19169290920160200192915050565b60208152600061121e60208301846111df565b9392505050565b6001600160a01b038116811461081957600080fd5b6000806040838503121561124d57600080fd5b823561125881611225565b946020939093013593505050565b60008060006060848603121561127b57600080fd5b833561128681611225565b9250602084013561129681611225565b929592945050506040919091013590565b6000602082840312156112b957600080fd5b813561121e81611225565b600080604083850312156112d757600080fd5b82356112e281611225565b915060208301356112f281611225565b809150509250929050565b60006020828403121561130f57600080fd5b5035919050565b60408152600061132960408301856111df565b828103602084015261133b81856111df565b95945050505050565b600181811c9082168061135857607f821691505b60208210810361137857634e487b7160e01b600052602260045260246000fd5b50919050565b634e487b7160e01b600052601160045260246000fd5b808201808211156103ba576103ba61137e565b6000602082840312156113b957600080fd5b815161121e81611225565b634e487b7160e01b600052604160045260246000fd5b6000602082840312156113ec57600080fd5b815167ffffffffffffffff8082111561140457600080fd5b818401915084601f83011261141857600080fd5b81518181111561142a5761142a6113c4565b604051601f8201601f19908116603f01168101908382118183101715611452576114526113c4565b8160405282815287602084870101111561146b57600080fd5b61147c8360208301602088016111bb565b979650505050505050565b818103818111156103ba576103ba61137e56fea2646970667358221220fc9155504dcccec8b181633b49e4b40885ddd9b748f3e10ff5d2923a31c5c38864736f6c63430008110033",
  "devdoc": {
    "kind": "dev",
    "methods": {
      "allowance(address,address)": {
        "details": "See {IERC20-allowance}."
      },
      "approve(address,uint256)": {
        "details": "See {IERC20-approve}. NOTE: If `amount` is the maximum `uint256`, the allowance is not updated on `transferFrom`. This is semantically equivalent to an infinite approval. Requirements: - `spender` cannot be the zero address."
      },
      "balanceOf(address)": {
        "details": "See {IERC20-balanceOf}."
      },
      "decimals()": {
        "details": "Returns the number of decimals used to get its user representation. For example, if `decimals` equals `2`, a balance of `505` tokens should be displayed to a user as `5.05` (`505 / 10 ** 2`). Tokens usually opt for a value of 18, imitating the relationship between Ether and Wei. This is the value {ERC20} uses, unless this function is overridden; NOTE: This information is only used for _display_ purposes: it in no way affects any of the arithmetic of the contract, including {IERC20-balanceOf} and {IERC20-transfer}."
      },
      "decreaseAllowance(address,uint256)": {
        "details": "Atomically decreases the allowance granted to `spender` by the caller. This is an alternative to {approve} that can be used as a mitigation for problems described in {IERC20-approve}. Emits an {Approval} event indicating the updated allowance. Requirements: - `spender` cannot be the zero address. - `spender` must have allowance for the caller of at least `subtractedValue`."
      },
      "increaseAllowance(address,uint256)": {
        "details": "Atomically increases the allowance granted to `spender` by the caller. This is an alternative to {approve} that can be used as a mitigation for problems described in {IERC20-approve}. Emits an {Approval} event indicating the updated allowance. Requirements: - `spender` cannot be the zero address."
      },
      "name()": {
        "details": "Returns the name of the token."
      },
      "symbol()": {
        "details": "Returns the symbol of the token, usually a shorter version of the name."
      },
      "totalSupply()": {
        "details": "See {IERC20-totalSupply}."
      },
      "transfer(address,uint256)": {
        "details": "See {IERC20-transfer}. Requirements: - `to` cannot be the zero address. - the caller must have a balance of at least `amount`."
      },
      "transferFrom(address,address,uint256)": {
        "details": "See {IERC20-transferFrom}. Emits an {Approval} event indicating the updated allowance. This is not required by the EIP. See the note at the beginning of {ERC20}. NOTE: Does not update the allowance if the current allowance is the maximum `uint256`. Requirements: - `from` and `to` cannot be the zero address. - `from` must have a balance of at least `amount`. - the caller must have allowance for ``from``'s tokens of at least `amount`."
      }
    },
    "version": 1
  },
  "userdoc": {
    "kind": "user",
    "methods": {},
    "version": 1
  },
  "storageLayout": {
    "storage": [
      {
        "astId": 15,
        "contract": "contracts/CompliantERC20.sol:CompliantERC20",
        "label": "_balances",
        "offset": 0,
        "slot": "0",
        "type": "t_mapping(t_address,t_uint256)"
      },
      {
        "astId": 21,
        "contract": "contracts/CompliantERC20.sol:CompliantERC20",
        "label": "_allowances",
        "offset": 0,
        "slot": "1",
        "type": "t_mapping(t_address,t_mapping(t_address,t_uint256))"
      },
      {
        "astId": 23,
        "contract": "contracts/CompliantERC20.sol:CompliantERC20",
        "label": "_totalSupply",
        "offset": 0,
        "slot": "2",
        "type": "t_uint256"
      },
      {
        "astId": 25,
        "contract": "contracts/CompliantERC20.sol:CompliantERC20",
        "label": "_name",
        "offset": 0,
        "slot": "3",
        "type": "t_string_storage"
      },
      {
        "astId": 27,
        "contract": "contracts/CompliantERC20.sol:CompliantERC20",
        "label": "_symbol",
        "offset": 0,
        "slot": "4",
        "type": "t_string_storage"
      },
      {
        "astId": 875,
        "contract": "contracts/CompliantERC20.sol:CompliantERC20",
        "label": "complianceNFT",
        "offset": 0,
        "slot": "5",
        "type": "t_contract(IERC721Metadata)832"
      },
      {
        "astId": 877,
        "contract": "contracts/CompliantERC20.sol:CompliantERC20",
        "label": "tokenIssuer",
        "offset": 0,
        "slot": "6",
        "type": "t_address"
      },
      {
        "astId": 879,
        "contract": "contracts/CompliantERC20.sol:CompliantERC20",
        "label": "currentComplianceId",
        "offset": 0,
        "slot": "7",
        "type": "t_uint256"
      },
      {
        "astId": 881,
        "contract": "contracts/CompliantERC20.sol:CompliantERC20",
        "label": "pendingComplianceId",
        "offset": 0,
        "slot": "8",
        "type": "t_uint256"
      },
      {
        "astId": 883,
        "contract": "contracts/CompliantERC20.sol:CompliantERC20",
        "label": "tokenHoldersCount",
        "offset": 0,
        "slot": "9",
        "type": "t_uint256"
      },
      {
        "astId": 885,
        "contract": "contracts/CompliantERC20.sol:CompliantERC20",
        "label": "pendingComplianceSignOffCount",
        "offset": 0,
        "slot": "10",
        "type": "t_uint256"
      },
      {
        "astId": 889,
        "contract": "contracts/CompliantERC20.sol:CompliantERC20",
        "label": "tokenHolderCompliance",
        "offset": 0,
        "slot": "11",
        "type": "t_mapping(t_address,t_uint256)"
      }
    ],
    "types": {
      "t_address": {
        "encoding": "inplace",
        "label": "address",
        "numberOfBytes": "20"
      },
      "t_contract(IERC721Metadata)832": {
        "encoding": "inplace",
        "label": "contract IERC721Metadata",
        "numberOfBytes": "20"
      },
      "t_mapping(t_address,t_mapping(t_address,t_uint256))": {
        "encoding": "mapping",
        "key": "t_address",
        "label": "mapping(address => mapping(address => uint256))",
        "numberOfBytes": "32",
        "value": "t_mapping(t_address,t_uint256)"
      },
      "t_mapping(t_address,t_uint256)": {
        "encoding": "mapping",
        "key": "t_address",
        "label": "mapping(address => uint256)",
        "numberOfBytes": "32",
        "value": "t_uint256"
      },
      "t_string_storage": {
        "encoding": "bytes",
        "label": "string",
        "numberOfBytes": "32"
      },
      "t_uint256": {
        "encoding": "inplace",
        "label": "uint256",
        "numberOfBytes": "32"
      }
    }
  }
}